{
  "contractName": "CrowdSale",
  "abi": [
    {
      "inputs": [
        {
          "name": "token",
          "type": "address"
        },
        {
          "name": "start",
          "type": "uint256"
        },
        {
          "name": "end",
          "type": "uint256"
        },
        {
          "name": "price",
          "type": "uint256"
        },
        {
          "name": "limit",
          "type": "uint256"
        }
      ],
      "payable": false,
      "stateMutability": "nonpayable",
      "type": "constructor"
    },
    {
      "payable": true,
      "stateMutability": "payable",
      "type": "fallback"
    },
    {
      "anonymous": false,
      "inputs": [
        {
          "indexed": false,
          "name": "beneficiary",
          "type": "address"
        },
        {
          "indexed": false,
          "name": "amount",
          "type": "uint256"
        }
      ],
      "name": "Buy",
      "type": "event"
    },
    {
      "constant": true,
      "inputs": [],
      "name": "availableBalance",
      "outputs": [
        {
          "name": "",
          "type": "uint256"
        }
      ],
      "payable": false,
      "stateMutability": "view",
      "type": "function"
    },
    {
      "constant": false,
      "inputs": [],
      "name": "buy",
      "outputs": [],
      "payable": true,
      "stateMutability": "payable",
      "type": "function"
    },
    {
      "constant": false,
      "inputs": [
        {
          "name": "beneficiary",
          "type": "address"
        }
      ],
      "name": "buyFor",
      "outputs": [],
      "payable": true,
      "stateMutability": "payable",
      "type": "function"
    },
    {
      "constant": false,
      "inputs": [
        {
          "name": "_from",
          "type": "address"
        },
        {
          "name": "_value",
          "type": "uint256"
        },
        {
          "name": "_data",
          "type": "bytes"
        }
      ],
      "name": "tokenFallback",
      "outputs": [],
      "payable": false,
      "stateMutability": "nonpayable",
      "type": "function"
    }
  ],
  "bytecode": "0x608060405234801561001057600080fd5b5060405160a0806104ce8339810180604052810190808051906020019092919080519060200190929190805190602001909291908051906020019092919080519060200190929190505050846000806101000a81548173ffffffffffffffffffffffffffffffffffffffff021916908373ffffffffffffffffffffffffffffffffffffffff160217905550836001819055508260028190555081600381905550806004819055505050505050610403806100cb6000396000f300608060405260043610610062576000357c0100000000000000000000000000000000000000000000000000000000900463ffffffff1680636f0b518014610067578063a6f2ae3a1461009d578063ab2f0e51146100a7578063c0ee0b8a146100d2575b600080fd5b61009b600480360381019080803573ffffffffffffffffffffffffffffffffffffffff169060200190929190505050610137565b005b6100a56103ac565b005b3480156100b357600080fd5b506100bc6103b7565b6040518082815260200191505060405180910390f35b3480156100de57600080fd5b50610135600480360381019080803573ffffffffffffffffffffffffffffffffffffffff169060200190929190803590602001909291908035906020019082018035906020019190919293919293905050506103c1565b005b6000600154431015801561014c575060025443105b151561015757600080fd5b600060055411151561016857600080fd5b813460006003548281151561017957fe5b04905060045481600660008673ffffffffffffffffffffffffffffffffffffffff1673ffffffffffffffffffffffffffffffffffffffff16815260200190815260200160002054011015156101cd57600080fd5b600354348115156101da57fe5b0493506000809054906101000a900473ffffffffffffffffffffffffffffffffffffffff1673ffffffffffffffffffffffffffffffffffffffff1663a9059cbb86866040518363ffffffff167c0100000000000000000000000000000000000000000000000000000000028152600401808373ffffffffffffffffffffffffffffffffffffffff1673ffffffffffffffffffffffffffffffffffffffff16815260200182815260200192505050602060405180830381600087803b1580156102a157600080fd5b505af11580156102b5573d6000803e3d6000fd5b505050506040513d60208110156102cb57600080fd5b81019080805190602001909291905050505083600660008773ffffffffffffffffffffffffffffffffffffffff1673ffffffffffffffffffffffffffffffffffffffff16815260200190815260200160002060008282540192505081905550836005600082825403925050819055507fe3d4187f6ca4248660cc0ac8b8056515bac4a8132be2eca31d6d0cc170722a7e8585604051808373ffffffffffffffffffffffffffffffffffffffff1673ffffffffffffffffffffffffffffffffffffffff1681526020018281526020019250505060405180910390a15050505050565b6103b533610137565b565b6000600554905090565b82600560008282540192505081905550505050505600a165627a7a723058201b4a6835b632b1e9cea23457296e4e29b4099073185dec0449fbbe1cc798b6650029",
  "source": "pragma solidity ^0.4.18;\n\nimport \"./ERCReceivingContract.sol\";\nimport \"./Token.sol\";\nimport \"./TokenFromScratch3.sol\";\nimport \"./ERCReceivingContract.sol\";\n\ncontract CrowdSale is ERCReceivingContract { //need ERC223 to notify when the contract recieves Tokens\n\n  Token private _token;\n  uint private _start;\n  uint private _end;\n  uint private _price;\n  uint private _limit;\n  uint private _balance;\n\n  mapping(address => uint) private _limits;\n\n  modifier withinLimit(address recipient, uint value) {\n    uint amount = value/_price;\n    require(_limits[recipient]+amount < _limit );\n    _;\n  }\n\n  modifier isAvailable() {\n    require(block.number >= _start && block.number < _end);\n    require(_balance > 0);\n    _;\n  }\n\n  event Buy(address beneficiary , uint amount);\n\n  function CrowdSale(address token, uint start, uint end, uint price, uint limit) public {\n      _token = Token(token);\n      _start = start;\n      _end = end;\n      _price = price;\n      _limit = limit;\n  }\n\n  function() external payable {\n    revert();\n  }\n\n\n  function availableBalance() external view returns(uint) {\n      return _balance;\n  }\n\n  function buy() public payable {\n    buyFor(msg.sender);\n\n  }\n\n  function buyFor(address beneficiary) public isAvailable() withinLimit(beneficiary, msg.value) payable {\n    uint amount = msg.value/_price;\n    _token.transfer(beneficiary,amount);\n    _limits[beneficiary] += amount;\n    _balance -= amount;\n    emit Buy(beneficiary, amount);\n  }\n\n  function tokenFallback(address _from, uint _value, bytes _data) external {\n      _balance += _value;\n  }\n\n}\n",
  "sourcePath": "/Users/chrayzhang/Desktop/ICOTest/contracts/Crowdsale.sol",
  "compiler": {
    "name": "solc",
    "version": "0.4.23+commit.124ca40d.Emscripten.clang"
  },
  "schemaVersion": "2.0.0",
  "updatedAt": "2018-05-12T02:28:05.929Z"
}