{
  "contractName": "CrowdSale",
  "abi": [
    {
      "constant": true,
      "inputs": [],
      "name": "_wallet",
      "outputs": [
        {
          "name": "",
          "type": "address"
        }
      ],
      "payable": false,
      "stateMutability": "view",
      "type": "function"
    },
    {
      "inputs": [
        {
          "name": "price",
          "type": "uint256"
        },
        {
          "name": "wallet",
          "type": "address"
        },
        {
          "name": "token",
          "type": "address"
        }
      ],
      "payable": false,
      "stateMutability": "nonpayable",
      "type": "constructor"
    },
    {
      "payable": true,
      "stateMutability": "payable",
      "type": "fallback"
    },
    {
      "anonymous": false,
      "inputs": [
        {
          "indexed": true,
          "name": "purchaser",
          "type": "address"
        },
        {
          "indexed": true,
          "name": "beneficiary",
          "type": "address"
        },
        {
          "indexed": false,
          "name": "value",
          "type": "uint256"
        },
        {
          "indexed": false,
          "name": "amount",
          "type": "uint256"
        }
      ],
      "name": "TokenPurchase",
      "type": "event"
    },
    {
      "constant": true,
      "inputs": [],
      "name": "hasClosed",
      "outputs": [
        {
          "name": "",
          "type": "bool"
        }
      ],
      "payable": false,
      "stateMutability": "view",
      "type": "function"
    },
    {
      "constant": true,
      "inputs": [],
      "name": "availableBalance",
      "outputs": [
        {
          "name": "",
          "type": "uint256"
        }
      ],
      "payable": false,
      "stateMutability": "view",
      "type": "function"
    },
    {
      "constant": false,
      "inputs": [
        {
          "name": "beneficiary",
          "type": "address"
        }
      ],
      "name": "buyFor",
      "outputs": [],
      "payable": true,
      "stateMutability": "payable",
      "type": "function"
    },
    {
      "constant": false,
      "inputs": [
        {
          "name": "_from",
          "type": "address"
        },
        {
          "name": "_value",
          "type": "uint256"
        },
        {
          "name": "_data",
          "type": "bytes"
        }
      ],
      "name": "tokenFallback",
      "outputs": [],
      "payable": false,
      "stateMutability": "nonpayable",
      "type": "function"
    }
  ],
  "bytecode": "0x608060405234801561001057600080fd5b5060405160608061065483398101806040528101908080519060200190929190805190602001909291908051906020019092919050505060008311151561005657600080fd5b600073ffffffffffffffffffffffffffffffffffffffff168273ffffffffffffffffffffffffffffffffffffffff161415151561009257600080fd5b600073ffffffffffffffffffffffffffffffffffffffff168173ffffffffffffffffffffffffffffffffffffffff16141515156100ce57600080fd5b806000806101000a81548173ffffffffffffffffffffffffffffffffffffffff021916908373ffffffffffffffffffffffffffffffffffffffff1602179055508260018190555081600560006101000a81548173ffffffffffffffffffffffffffffffffffffffff021916908373ffffffffffffffffffffffffffffffffffffffff1602179055505050506104ec806101686000396000f30060806040526004361061006d576000357c0100000000000000000000000000000000000000000000000000000000900463ffffffff1680631515bc2b14610078578063610757e4146100a75780636f0b5180146100fe578063ab2f0e5114610134578063c0ee0b8a1461015f575b610076336101c4565b005b34801561008457600080fd5b5061008d610376565b604051808215151515815260200191505060405180910390f35b3480156100b357600080fd5b506100bc610382565b604051808273ffffffffffffffffffffffffffffffffffffffff1673ffffffffffffffffffffffffffffffffffffffff16815260200191505060405180910390f35b610132600480360381019080803573ffffffffffffffffffffffffffffffffffffffff1690602001909291905050506101c4565b005b34801561014057600080fd5b506101496103a8565b6040518082815260200191505060405180910390f35b34801561016b57600080fd5b506101c2600480360381019080803573ffffffffffffffffffffffffffffffffffffffff169060200190929190803590602001909291908035906020019082018035906020019190919293919293905050506103b2565b005b6000803491506101df6001548361042390919063ffffffff16565b90506101f68160045461043990919063ffffffff16565b6004819055506000809054906101000a900473ffffffffffffffffffffffffffffffffffffffff1673ffffffffffffffffffffffffffffffffffffffff1663a9059cbb84836040518363ffffffff167c0100000000000000000000000000000000000000000000000000000000028152600401808373ffffffffffffffffffffffffffffffffffffffff1673ffffffffffffffffffffffffffffffffffffffff16815260200182815260200192505050602060405180830381600087803b1580156102c057600080fd5b505af11580156102d4573d6000803e3d6000fd5b505050506040513d60208110156102ea57600080fd5b810190808051906020019092919050505050610304610455565b8273ffffffffffffffffffffffffffffffffffffffff163373ffffffffffffffffffffffffffffffffffffffff167f623b3804fa71d67900d064613da8f94b9617215ee90799290593e1745087ad188484604051808381526020018281526020019250505060405180910390a3505050565b60006007544211905090565b600560009054906101000a900473ffffffffffffffffffffffffffffffffffffffff1681565b6000600354905090565b6000809054906101000a900473ffffffffffffffffffffffffffffffffffffffff1673ffffffffffffffffffffffffffffffffffffffff163373ffffffffffffffffffffffffffffffffffffffff1614151561040d57600080fd5b8260036000828254019250508190555050505050565b6000818381151561043057fe5b04905092915050565b6000818301905082811015151561044c57fe5b80905092915050565b600560009054906101000a900473ffffffffffffffffffffffffffffffffffffffff1673ffffffffffffffffffffffffffffffffffffffff166108fc349081150290604051600060405180830381858888f193505050501580156104bd573d6000803e3d6000fd5b505600a165627a7a72305820cbb4d4fe1cee3f888036a5d825db1700a0c3ccb7ae99fc39567be0f0e5b30d970029",
  "source": "pragma solidity ^0.4.18;\n\nimport \"./ERCReceivingContract.sol\";\nimport \"./Token.sol\";\nimport \"./TokenFromScratch3.sol\";\nimport \"./ERCReceivingContract.sol\";\nimport \"./SafeMath.sol\";\n\ncontract CrowdSale is ERCReceivingContract{ //need ERC223 to notify when the contract recieves Tokens\n\n  using SafeMath for uint256;\n\n  Token private _token; //place the token comes from\n  uint256 private _price; //price per token\n  uint256 private _limit; //cap\n  uint256 private _available; //amount left\n  uint256 private _raised; //raised amount\n  address public _wallet; //wallet im sending my coins to\n  uint256 private _start;\n  uint256 private _end;\n\n  event TokenPurchase(address indexed purchaser, address indexed beneficiary, uint256 value, uint256 amount);\n\n  mapping(address => uint) private _contributions;\n\n/*-------------------Modifiers-------------------------*/\n  modifier isToken {\n    require(msg.sender == address(_token));\n    _;\n  }\n  //modifier onlyWhileOpen {\n    // solium-disable-next-line security/no-block-members\n  //  require(block.timestamp >= _openingTime && block.timestamp <= _closingTime);\n  //  _;\n  //}\n\n  function CrowdSale(uint256 price, address wallet, Token token) public {\n      require(price > 0);\n      require(wallet != address(0));\n      require(token != address(0));\n      _token = token; //setting address tokens are coming from\n      //_deadline = deadline; //setting deadline time\n      _price = price; //setting price in wei per token\n      //_limit = limit; //setting cap\n      _wallet = wallet; //setting address the money will be sent to after time is done\n      //_start = openingtime;\n      //_end = closingtime;\n  }\n\n  function() external payable {\n    buyFor(msg.sender);\n  }\n  function hasClosed() public view returns (bool) {\n     //solium-disable-next-line security/no-block-members\n   return block.timestamp > _end;\n  }\n\n\n  function availableBalance() external view returns(uint) {\n      return _available;\n  }\n\n\n  function buyFor(address beneficiary) public /*available() valid(beneficiary, msg.value)*/ payable {\n    //require(beneficiary != address(0));\n    //require(msg.value != 0);\n    uint256 weiamount = msg.value;\n    uint256 amount = weiamount.div(_price);\n    _raised = _raised.add(amount);\n    _token.transfer(beneficiary,amount);\n    //_contributions[beneficiary] = _contributions[beneficiary].add(amount);\n    //_available = _available.sub(amount);\n    _forwardFunds();\n\n    emit TokenPurchase(msg.sender,beneficiary,weiamount,amount);\n  }\n\n  function tokenFallback(address _from, uint _value, bytes _data) external isToken() {\n      _available += _value;\n  }\n  function _forwardFunds() internal {\n    _wallet.transfer(msg.value);\n  }\n\n}\n",
  "sourcePath": "/Users/chrayzhang/Desktop/ICOTest/contracts/Crowdsale.sol",
  "compiler": {
    "name": "solc",
    "version": "0.4.23+commit.124ca40d.Emscripten.clang"
  },
  "schemaVersion": "2.0.0",
  "updatedAt": "2018-05-13T03:59:43.631Z"
}