{
  "contractName": "TokenFromScratch3",
  "abi": [
    {
      "constant": false,
      "inputs": [],
      "name": "name",
      "outputs": [
        {
          "name": "",
          "type": "string"
        }
      ],
      "payable": false,
      "stateMutability": "nonpayable",
      "type": "function"
    },
    {
      "constant": false,
      "inputs": [],
      "name": "decimals",
      "outputs": [
        {
          "name": "",
          "type": "uint8"
        }
      ],
      "payable": false,
      "stateMutability": "nonpayable",
      "type": "function"
    },
    {
      "constant": false,
      "inputs": [],
      "name": "totalsupply",
      "outputs": [
        {
          "name": "",
          "type": "uint256"
        }
      ],
      "payable": false,
      "stateMutability": "nonpayable",
      "type": "function"
    },
    {
      "constant": false,
      "inputs": [],
      "name": "symbol",
      "outputs": [
        {
          "name": "",
          "type": "string"
        }
      ],
      "payable": false,
      "stateMutability": "nonpayable",
      "type": "function"
    },
    {
      "inputs": [],
      "payable": false,
      "stateMutability": "nonpayable",
      "type": "constructor"
    },
    {
      "anonymous": false,
      "inputs": [
        {
          "indexed": true,
          "name": "from",
          "type": "address"
        },
        {
          "indexed": true,
          "name": "to",
          "type": "address"
        },
        {
          "indexed": false,
          "name": "value",
          "type": "uint256"
        },
        {
          "indexed": false,
          "name": "data",
          "type": "bytes"
        }
      ],
      "name": "Transfer",
      "type": "event"
    },
    {
      "anonymous": false,
      "inputs": [
        {
          "indexed": true,
          "name": "tokenOwner",
          "type": "address"
        },
        {
          "indexed": true,
          "name": "spender",
          "type": "address"
        },
        {
          "indexed": false,
          "name": "tokens",
          "type": "uint256"
        }
      ],
      "name": "Approval",
      "type": "event"
    },
    {
      "anonymous": false,
      "inputs": [
        {
          "indexed": true,
          "name": "_from",
          "type": "address"
        },
        {
          "indexed": true,
          "name": "_to",
          "type": "address"
        },
        {
          "indexed": false,
          "name": "tokens",
          "type": "uint256"
        }
      ],
      "name": "Transfer",
      "type": "event"
    },
    {
      "constant": true,
      "inputs": [],
      "name": "totalSupply",
      "outputs": [
        {
          "name": "",
          "type": "uint256"
        }
      ],
      "payable": false,
      "stateMutability": "view",
      "type": "function"
    },
    {
      "constant": true,
      "inputs": [
        {
          "name": "_addr",
          "type": "address"
        }
      ],
      "name": "balanceOf",
      "outputs": [
        {
          "name": "",
          "type": "uint256"
        }
      ],
      "payable": false,
      "stateMutability": "view",
      "type": "function"
    },
    {
      "constant": false,
      "inputs": [
        {
          "name": "_to",
          "type": "address"
        },
        {
          "name": "tokens",
          "type": "uint256"
        }
      ],
      "name": "transfer",
      "outputs": [
        {
          "name": "",
          "type": "bool"
        }
      ],
      "payable": false,
      "stateMutability": "nonpayable",
      "type": "function"
    },
    {
      "constant": false,
      "inputs": [
        {
          "name": "_spender",
          "type": "address"
        },
        {
          "name": "tokens",
          "type": "uint256"
        }
      ],
      "name": "approve",
      "outputs": [
        {
          "name": "",
          "type": "bool"
        }
      ],
      "payable": false,
      "stateMutability": "nonpayable",
      "type": "function"
    },
    {
      "constant": false,
      "inputs": [
        {
          "name": "_from",
          "type": "address"
        },
        {
          "name": "_to",
          "type": "address"
        },
        {
          "name": "tokens",
          "type": "uint256"
        }
      ],
      "name": "transferFrom",
      "outputs": [
        {
          "name": "",
          "type": "bool"
        }
      ],
      "payable": false,
      "stateMutability": "nonpayable",
      "type": "function"
    },
    {
      "constant": true,
      "inputs": [
        {
          "name": "tokenOwner",
          "type": "address"
        },
        {
          "name": "spender",
          "type": "address"
        }
      ],
      "name": "allowance",
      "outputs": [
        {
          "name": "",
          "type": "uint256"
        }
      ],
      "payable": false,
      "stateMutability": "view",
      "type": "function"
    }
  ],
  "bytecode": "0x60806040523480156200001157600080fd5b506040805190810160405280601181526020017f546f6b656e46726f6d53637261746368330000000000000000000000000000008152506040805190810160405280600381526020017f5446530000000000000000000000000000000000000000000000000000000000815250600061271083600090805190602001906200009b92919062000127565b508260019080519060200190620000b492919062000127565b5081600260006101000a81548160ff021916908360ff1602179055508060038190555050505050600354600460003373ffffffffffffffffffffffffffffffffffffffff1673ffffffffffffffffffffffffffffffffffffffff16815260200190815260200160002081905550620001d6565b828054600181600116156101000203166002900490600052602060002090601f016020900481019282601f106200016a57805160ff19168380011785556200019b565b828001600101855582156200019b579182015b828111156200019a5782518255916020019190600101906200017d565b5b509050620001aa9190620001ae565b5090565b620001d391905b80821115620001cf576000816000905550600101620001b5565b5090565b90565b61117380620001e66000396000f3006080604052600436106100a4576000357c0100000000000000000000000000000000000000000000000000000000900463ffffffff16806306fdde03146100a9578063095ea7b31461013957806318160ddd1461019e57806323b872dd146101c9578063313ce5671461024e57806370a082311461027f57806372dd529b146102d657806395d89b4114610301578063a9059cbb14610391578063dd62ed3e146103f6575b600080fd5b3480156100b557600080fd5b506100be61046d565b6040518080602001828103825283818151815260200191508051906020019080838360005b838110156100fe5780820151818401526020810190506100e3565b50505050905090810190601f16801561012b5780820380516001836020036101000a031916815260200191505b509250505060405180910390f35b34801561014557600080fd5b50610184600480360381019080803573ffffffffffffffffffffffffffffffffffffffff1690602001909291908035906020019092919050505061050f565b604051808215151515815260200191505060405180910390f35b3480156101aa57600080fd5b506101b3610653565b6040518082815260200191505060405180910390f35b3480156101d557600080fd5b50610234600480360381019080803573ffffffffffffffffffffffffffffffffffffffff169060200190929190803573ffffffffffffffffffffffffffffffffffffffff1690602001909291908035906020019092919050505061065d565b604051808215151515815260200191505060405180910390f35b34801561025a57600080fd5b50610263610684565b604051808260ff1660ff16815260200191505060405180910390f35b34801561028b57600080fd5b506102c0600480360381019080803573ffffffffffffffffffffffffffffffffffffffff16906020019092919050505061069b565b6040518082815260200191505060405180910390f35b3480156102e257600080fd5b506102eb6106e4565b6040518082815260200191505060405180910390f35b34801561030d57600080fd5b506103166106ee565b6040518080602001828103825283818151815260200191508051906020019080838360005b8381101561035657808201518184015260208101905061033b565b50505050905090810190601f1680156103835780820380516001836020036101000a031916815260200191505b509250505060405180910390f35b34801561039d57600080fd5b506103dc600480360381019080803573ffffffffffffffffffffffffffffffffffffffff16906020019092919080359060200190929190505050610790565b604051808215151515815260200191505060405180910390f35b34801561040257600080fd5b50610457600480360381019080803573ffffffffffffffffffffffffffffffffffffffff169060200190929190803573ffffffffffffffffffffffffffffffffffffffff1690602001909291905050506107b5565b6040518082815260200191505060405180910390f35b606060008054600181600116156101000203166002900480601f0160208091040260200160405190810160405280929190818152602001828054600181600116156101000203166002900480156105055780601f106104da57610100808354040283529160200191610505565b820191906000526020600020905b8154815290600101906020018083116104e857829003601f168201915b5050505050905090565b6000600460003373ffffffffffffffffffffffffffffffffffffffff1673ffffffffffffffffffffffffffffffffffffffff16815260200190815260200160002054821115156106485781600560003373ffffffffffffffffffffffffffffffffffffffff1673ffffffffffffffffffffffffffffffffffffffff16815260200190815260200160002060008573ffffffffffffffffffffffffffffffffffffffff1673ffffffffffffffffffffffffffffffffffffffff168152602001908152602001600020819055508273ffffffffffffffffffffffffffffffffffffffff163373ffffffffffffffffffffffffffffffffffffffff167f8c5be1e5ebec7d5bd14f71427d1e84f3dd0314c0f7b2291e5b200ac8c7c3b925846040518082815260200191505060405180910390a36001905061064d565b600090505b92915050565b6000600354905090565b600061067b8484846020604051908101604052806000815250610947565b90509392505050565b6000600260009054906101000a900460ff16905090565b6000600460008373ffffffffffffffffffffffffffffffffffffffff1673ffffffffffffffffffffffffffffffffffffffff168152602001908152602001600020549050919050565b6000600354905090565b606060018054600181600116156101000203166002900480601f0160208091040260200160405190810160405280929190818152602001828054600181600116156101000203166002900480156107865780601f1061075b57610100808354040283529160200191610786565b820191906000526020600020905b81548152906001019060200180831161076957829003601f168201915b5050505050905090565b60006107ad83836020604051908101604052806000815250610e0b565b905092915050565b6000600460008473ffffffffffffffffffffffffffffffffffffffff1673ffffffffffffffffffffffffffffffffffffffff16815260200190815260200160002054600560008573ffffffffffffffffffffffffffffffffffffffff1673ffffffffffffffffffffffffffffffffffffffff16815260200190815260200160002060008473ffffffffffffffffffffffffffffffffffffffff1673ffffffffffffffffffffffffffffffffffffffff1681526020019081526020016000205410156108fe57600560008473ffffffffffffffffffffffffffffffffffffffff1673ffffffffffffffffffffffffffffffffffffffff16815260200190815260200160002060008373ffffffffffffffffffffffffffffffffffffffff1673ffffffffffffffffffffffffffffffffffffffff168152602001908152602001600020549050610941565b600460008473ffffffffffffffffffffffffffffffffffffffff1673ffffffffffffffffffffffffffffffffffffffff1681526020019081526020016000205490505b92915050565b60008083600460008873ffffffffffffffffffffffffffffffffffffffff1673ffffffffffffffffffffffffffffffffffffffff1681526020019081526020016000205410158015610a1557506000600560008873ffffffffffffffffffffffffffffffffffffffff1673ffffffffffffffffffffffffffffffffffffffff16815260200190815260200160002060003373ffffffffffffffffffffffffffffffffffffffff1673ffffffffffffffffffffffffffffffffffffffff16815260200190815260200160002054115b8015610a9d575083600560008873ffffffffffffffffffffffffffffffffffffffff1673ffffffffffffffffffffffffffffffffffffffff16815260200190815260200160002060003373ffffffffffffffffffffffffffffffffffffffff1673ffffffffffffffffffffffffffffffffffffffff1681526020019081526020016000205410155b8015610aa95750600084115b15610dfd5783600560008873ffffffffffffffffffffffffffffffffffffffff1673ffffffffffffffffffffffffffffffffffffffff16815260200190815260200160002060003373ffffffffffffffffffffffffffffffffffffffff1673ffffffffffffffffffffffffffffffffffffffff16815260200190815260200160002060008282540392505081905550610b578573ffffffffffffffffffffffffffffffffffffffff16611134565b15610c88578490508073ffffffffffffffffffffffffffffffffffffffff1663c0ee0b8a3386866040518463ffffffff167c0100000000000000000000000000000000000000000000000000000000028152600401808473ffffffffffffffffffffffffffffffffffffffff1673ffffffffffffffffffffffffffffffffffffffff16815260200183815260200180602001828103825283818151815260200191508051906020019080838360005b83811015610c21578082015181840152602081019050610c06565b50505050905090810190601f168015610c4e5780820380516001836020036101000a031916815260200191505b50945050505050600060405180830381600087803b158015610c6f57600080fd5b505af1158015610c83573d6000803e3d6000fd5b505050505b83600460008873ffffffffffffffffffffffffffffffffffffffff1673ffffffffffffffffffffffffffffffffffffffff1681526020019081526020016000206000828254039250508190555083600460008773ffffffffffffffffffffffffffffffffffffffff1673ffffffffffffffffffffffffffffffffffffffff168152602001908152602001600020600082825401925050819055508473ffffffffffffffffffffffffffffffffffffffff168673ffffffffffffffffffffffffffffffffffffffff167fe19260aff97b920c7df27010903aeb9c8d2be5d310a2c67824cf3f15396e4c1686866040518083815260200180602001828103825283818151815260200191508051906020019080838360005b83811015610db9578082015181840152602081019050610d9e565b50505050905090810190601f168015610de65780820380516001836020036101000a031916815260200191505b50935050505060405180910390a360019150610e02565b600091505b50949350505050565b600080600084118015610e5d5750600460003373ffffffffffffffffffffffffffffffffffffffff1673ffffffffffffffffffffffffffffffffffffffff168152602001908152602001600020548411155b1561112757610e818573ffffffffffffffffffffffffffffffffffffffff16611134565b15610fb2578490508073ffffffffffffffffffffffffffffffffffffffff1663c0ee0b8a3386866040518463ffffffff167c0100000000000000000000000000000000000000000000000000000000028152600401808473ffffffffffffffffffffffffffffffffffffffff1673ffffffffffffffffffffffffffffffffffffffff16815260200183815260200180602001828103825283818151815260200191508051906020019080838360005b83811015610f4b578082015181840152602081019050610f30565b50505050905090810190601f168015610f785780820380516001836020036101000a031916815260200191505b50945050505050600060405180830381600087803b158015610f9957600080fd5b505af1158015610fad573d6000803e3d6000fd5b505050505b83600460003373ffffffffffffffffffffffffffffffffffffffff1673ffffffffffffffffffffffffffffffffffffffff1681526020019081526020016000206000828254039250508190555083600460008773ffffffffffffffffffffffffffffffffffffffff1673ffffffffffffffffffffffffffffffffffffffff168152602001908152602001600020600082825401925050819055508473ffffffffffffffffffffffffffffffffffffffff163373ffffffffffffffffffffffffffffffffffffffff167fe19260aff97b920c7df27010903aeb9c8d2be5d310a2c67824cf3f15396e4c1686866040518083815260200180602001828103825283818151815260200191508051906020019080838360005b838110156110e35780820151818401526020810190506110c8565b50505050905090810190601f1680156111105780820380516001836020036101000a031916815260200191505b50935050505060405180910390a36001915061112c565b600091505b509392505050565b600080823b9050600081119150509190505600a165627a7a72305820d8a353542e4711ece52d5f1fb3f7023b59380c0b545e7c711147a9c34d5b46980029",
  "source": "pragma solidity ^0.4.18;\n\nimport \"./ERCReceivingContract.sol\";\nimport \"./Token.sol\";\n\ninterface ERC20 {\n\t\tfunction totalSupply() external constant returns (uint);\n    function balanceOf(address tokenOwner) external constant returns (uint balance);\n    function allowance(address tokenOwner, address spender) external constant returns (uint remaining);\n    function transfer(address _to, uint tokens) external returns (bool success);\n    function approve(address _spender, uint tokens) external returns (bool success);\n    function transferFrom(address _from, address _to, uint tokens) external returns (bool success);\n    event Transfer(address indexed from, address indexed to, uint value, bytes data);\n    event Approval(address indexed tokenOwner, address indexed spender, uint tokens);\n}\n\n\nlibrary Addresses {\n  function isContract(address _base) internal constant returns (bool) {\n      uint codeSize;\n      assembly {\n          codeSize := extcodesize(_base)\n      }\n      return codeSize > 0;\n  }\n}\n\ncontract TokenFromScratch3 is Token(\"TokenFromScratch3\", \"TFS\", 0, 10000), ERC20 {\n\n\tusing Addresses for address;\n\n\tconstructor() TokenFromScratch3() public {\n\t    _balanceOf[msg.sender] = _totalsupply;\n\n\t}\n\n\tfunction totalSupply() external constant returns (uint) {\n\t\treturn _totalsupply;\n\t}\n\n\tfunction balanceOf(address _addr) external constant returns (uint) {\n\t\treturn _balanceOf[_addr];\n\t}\n\n\tfunction transfer(address _to, uint tokens, bytes _data) internal returns (bool) {\n\t\tif (tokens > 0 && tokens <= _balanceOf[msg.sender]) {\n\t\t\tif(_to.isContract()){\n\t\t\t\tERCReceivingContract _contract = ERCReceivingContract(_to);\n\t\t\t\t_contract.tokenFallback(msg.sender, tokens, _data);\n\t\t\t}\n\t\t\t_balanceOf[msg.sender] -= tokens;\n\t\t\t_balanceOf[_to] += tokens;\n\t\t\temit Transfer(msg.sender, _to, tokens, _data);\n\t\t\treturn true;\n\t\t}\n\t\treturn false;\n\t}\n\n\tfunction transfer(address _to, uint tokens) external returns (bool){\n\t\treturn transfer(_to, tokens, \"\");\n\t}\n\n\tfunction approve(address _spender, uint tokens) external returns (bool){\n\t\tif (tokens <= _balanceOf[msg.sender]) {\n\t\t\t_allowances[msg.sender][_spender] = tokens;\n\t\t\temit Approval(msg.sender,_spender,tokens);\n\t\t\treturn true;\n\t\t}\n\t\treturn false;\n\t}\n\n\tfunction transferFrom(address _from, address _to, uint tokens, bytes _data) internal returns (bool) {\n\t\tif (_balanceOf[_from] >= tokens &&\n\t\t\t_allowances[_from][msg.sender] > 0 &&\n\t\t\t_allowances[_from][msg.sender] >= tokens &&\n\t\t\ttokens > 0){\n\t\t\t\t_allowances[_from][msg.sender] -= tokens;\n\t\t\t\tif (_to.isContract()){\n\t\t\t\t\tERCReceivingContract _contract = ERCReceivingContract(_to);\n\t\t\t\t\t_contract.tokenFallback(msg.sender, tokens, _data);\n\t\t\t\t}\n\t\t\t_balanceOf[_from] -= tokens;\n\t\t\t_balanceOf[_to] += tokens;\n\t\t\temit Transfer(_from, _to, tokens, _data);\n\t\t\treturn true;\n\t\t}\n\t\treturn false;\n\t}\n\tfunction transferFrom(address _from, address _to, uint tokens) external returns (bool){\n\t\treturn transferFrom(_from, _to, tokens, \"\");\n\t}\n\n\tfunction allowance(address tokenOwner, address spender) external constant returns (uint){\n\t\tif (_allowances[tokenOwner][spender] < _balanceOf[tokenOwner]) {\n\t\t\treturn _allowances[tokenOwner][spender];\n\t\t}\n\t\treturn _balanceOf[tokenOwner];\n\t}\n\n}\n",
  "sourcePath": "/Users/chrayzhang/Desktop/ICOTest/contracts/TokenFromScratch3.sol",
  "compiler": {
    "name": "solc",
    "version": "0.4.23+commit.124ca40d.Emscripten.clang"
  },
  "schemaVersion": "2.0.0",
  "updatedAt": "2018-05-12T02:28:05.958Z"
}