{
  "contractName": "CrowdSale",
  "abi": [
    {
      "inputs": [
        {
          "name": "token",
          "type": "address"
        },
        {
          "name": "start",
          "type": "uint256"
        },
        {
          "name": "end",
          "type": "uint256"
        },
        {
          "name": "price",
          "type": "uint256"
        },
        {
          "name": "limit",
          "type": "uint256"
        }
      ],
      "payable": false,
      "stateMutability": "nonpayable",
      "type": "constructor"
    },
    {
      "constant": true,
      "inputs": [],
      "name": "availableBalance",
      "outputs": [
        {
          "name": "",
          "type": "uint256"
        }
      ],
      "payable": false,
      "stateMutability": "view",
      "type": "function"
    },
    {
      "constant": false,
      "inputs": [],
      "name": "buy",
      "outputs": [],
      "payable": true,
      "stateMutability": "payable",
      "type": "function"
    },
    {
      "constant": false,
      "inputs": [
        {
          "name": "beneficiary",
          "type": "address"
        }
      ],
      "name": "buyFor",
      "outputs": [],
      "payable": true,
      "stateMutability": "payable",
      "type": "function"
    },
    {
      "constant": false,
      "inputs": [
        {
          "name": "_from",
          "type": "address"
        },
        {
          "name": "_value",
          "type": "uint256"
        },
        {
          "name": "_data",
          "type": "bytes"
        }
      ],
      "name": "tokenFallback",
      "outputs": [],
      "payable": false,
      "stateMutability": "nonpayable",
      "type": "function"
    }
  ],
  "bytecode": "0x608060405234801561001057600080fd5b5060405160a0806102808339810180604052810190808051906020019092919080519060200190929190805190602001909291908051906020019092919080519060200190929190505050846000806101000a81548173ffffffffffffffffffffffffffffffffffffffff021916908373ffffffffffffffffffffffffffffffffffffffff1602179055508360018190555082600281905550816003819055508060048190555050505050506101b5806100cb6000396000f300608060405260043610610062576000357c0100000000000000000000000000000000000000000000000000000000900463ffffffff1680636f0b518014610067578063a6f2ae3a1461009d578063ab2f0e51146100a7578063c0ee0b8a146100d2575b600080fd5b61009b600480360381019080803573ffffffffffffffffffffffffffffffffffffffff169060200190929190505050610165565b005b6100a5610168565b005b3480156100b357600080fd5b506100bc61016a565b6040518082815260200191505060405180910390f35b3480156100de57600080fd5b50610163600480360381019080803573ffffffffffffffffffffffffffffffffffffffff16906020019092919080359060200190929190803590602001908201803590602001908080601f0160208091040260200160405190810160405280939291908181526020018383808284378201915050505050509192919290505050610174565b005b50565b565b6000600554905090565b816005600082825401925050819055505050505600a165627a7a72305820412b862826ca1dc33d95811e5d0eb48caf406f8f5b4e58cd7487ff9040a6ee7e0029",
  "source": "pragma solidity ^0.4.18;\n\nimport \"./ERCReceivingContract.sol\";\n\ncontract CrowdSale is ERCReceivingContract { //need ERC223 to notify when the contract recieves Tokens\n\n  address private _token;\n  uint private _start;\n  uint private _end;\n  uint private _price;\n  uint private _limit;\n  uint private _balance;\n\n  function CrowdSale(address token, uint start, uint end, uint price, uint limit) {\n      _token = token;\n      _start = start;\n      _end = end;\n      _price = price;\n      _limit = limit;\n  }\n\n  function availableBalance() public view returns(uint) {\n      return _balance;\n  }\n\n  function buy() public payable {\n\n  }\n\n  function buyFor(address beneficiary) public payable {\n\n  }\n\n  function tokenFallback(address _from, uint _value, bytes _data) public {\n      _balance += _value;\n  }\n\n}\n",
  "sourcePath": "/Users/chrayzhang/Desktop/ICOTest/contracts/Crowdsale.sol",
  "compiler": {
    "name": "solc",
    "version": "0.4.23+commit.124ca40d.Emscripten.clang"
  },
  "schemaVersion": "2.0.0",
  "updatedAt": "2018-05-11T19:38:10.226Z"
}