{
  "contractName": "TokenFromScratch3",
  "abi": [
    {
      "constant": true,
      "inputs": [
        {
          "name": "",
          "type": "address"
        },
        {
          "name": "",
          "type": "address"
        }
      ],
      "name": "_allowances",
      "outputs": [
        {
          "name": "",
          "type": "uint256"
        }
      ],
      "payable": false,
      "stateMutability": "view",
      "type": "function"
    },
    {
      "constant": true,
      "inputs": [],
      "name": "name",
      "outputs": [
        {
          "name": "",
          "type": "string"
        }
      ],
      "payable": false,
      "stateMutability": "view",
      "type": "function"
    },
    {
      "constant": true,
      "inputs": [],
      "name": "symbol",
      "outputs": [
        {
          "name": "",
          "type": "string"
        }
      ],
      "payable": false,
      "stateMutability": "view",
      "type": "function"
    },
    {
      "constant": true,
      "inputs": [
        {
          "name": "",
          "type": "address"
        }
      ],
      "name": "_balanceOf",
      "outputs": [
        {
          "name": "",
          "type": "uint256"
        }
      ],
      "payable": false,
      "stateMutability": "view",
      "type": "function"
    },
    {
      "inputs": [],
      "payable": false,
      "stateMutability": "nonpayable",
      "type": "constructor"
    },
    {
      "anonymous": false,
      "inputs": [
        {
          "indexed": true,
          "name": "from",
          "type": "address"
        },
        {
          "indexed": true,
          "name": "to",
          "type": "address"
        },
        {
          "indexed": false,
          "name": "value",
          "type": "uint256"
        },
        {
          "indexed": false,
          "name": "data",
          "type": "bytes"
        }
      ],
      "name": "Transfer",
      "type": "event"
    },
    {
      "anonymous": false,
      "inputs": [
        {
          "indexed": true,
          "name": "tokenOwner",
          "type": "address"
        },
        {
          "indexed": true,
          "name": "spender",
          "type": "address"
        },
        {
          "indexed": false,
          "name": "tokens",
          "type": "uint256"
        }
      ],
      "name": "Approval",
      "type": "event"
    },
    {
      "constant": true,
      "inputs": [],
      "name": "totalSupply",
      "outputs": [
        {
          "name": "",
          "type": "uint256"
        }
      ],
      "payable": false,
      "stateMutability": "view",
      "type": "function"
    },
    {
      "constant": true,
      "inputs": [
        {
          "name": "_addr",
          "type": "address"
        }
      ],
      "name": "balanceOf",
      "outputs": [
        {
          "name": "",
          "type": "uint256"
        }
      ],
      "payable": false,
      "stateMutability": "view",
      "type": "function"
    },
    {
      "constant": false,
      "inputs": [
        {
          "name": "_to",
          "type": "address"
        },
        {
          "name": "tokens",
          "type": "uint256"
        }
      ],
      "name": "transfer",
      "outputs": [
        {
          "name": "",
          "type": "bool"
        }
      ],
      "payable": false,
      "stateMutability": "nonpayable",
      "type": "function"
    },
    {
      "constant": false,
      "inputs": [
        {
          "name": "_spender",
          "type": "address"
        },
        {
          "name": "tokens",
          "type": "uint256"
        }
      ],
      "name": "approve",
      "outputs": [
        {
          "name": "",
          "type": "bool"
        }
      ],
      "payable": false,
      "stateMutability": "nonpayable",
      "type": "function"
    },
    {
      "constant": false,
      "inputs": [
        {
          "name": "_from",
          "type": "address"
        },
        {
          "name": "_to",
          "type": "address"
        },
        {
          "name": "tokens",
          "type": "uint256"
        }
      ],
      "name": "transferFrom",
      "outputs": [
        {
          "name": "",
          "type": "bool"
        }
      ],
      "payable": false,
      "stateMutability": "nonpayable",
      "type": "function"
    },
    {
      "constant": true,
      "inputs": [
        {
          "name": "tokenOwner",
          "type": "address"
        },
        {
          "name": "spender",
          "type": "address"
        }
      ],
      "name": "allowance",
      "outputs": [
        {
          "name": "",
          "type": "uint256"
        }
      ],
      "payable": false,
      "stateMutability": "view",
      "type": "function"
    }
  ],
  "bytecode": "0x60806040526040805190810160405280600381526020017f544653000000000000000000000000000000000000000000000000000000000081525060009080519060200190620000519291906200011c565b506040805190810160405280601381526020017f546f6b656e2046726f6d20536372617463683200000000000000000000000000815250600190805190602001906200009f9291906200011c565b506000600260006101000a81548160ff021916908360ff160217905550612710600355348015620000cf57600080fd5b50600354600460003373ffffffffffffffffffffffffffffffffffffffff1673ffffffffffffffffffffffffffffffffffffffff16815260200190815260200160002081905550620001cb565b828054600181600116156101000203166002900490600052602060002090601f016020900481019282601f106200015f57805160ff191683800117855562000190565b8280016001018555821562000190579182015b828111156200018f57825182559160200191906001019062000172565b5b5090506200019f9190620001a3565b5090565b620001c891905b80821115620001c4576000816000905550600101620001aa565b5090565b90565b6111f980620001db6000396000f3006080604052600436106100a4576000357c0100000000000000000000000000000000000000000000000000000000900463ffffffff168063024c2ddd146100a957806306fdde0314610120578063095ea7b3146101b057806318160ddd1461021557806323b872dd1461024057806370a08231146102c557806395d89b411461031c578063a9059cbb146103ac578063cca3e83214610411578063dd62ed3e14610468575b600080fd5b3480156100b557600080fd5b5061010a600480360381019080803573ffffffffffffffffffffffffffffffffffffffff169060200190929190803573ffffffffffffffffffffffffffffffffffffffff1690602001909291905050506104df565b6040518082815260200191505060405180910390f35b34801561012c57600080fd5b50610135610504565b6040518080602001828103825283818151815260200191508051906020019080838360005b8381101561017557808201518184015260208101905061015a565b50505050905090810190601f1680156101a25780820380516001836020036101000a031916815260200191505b509250505060405180910390f35b3480156101bc57600080fd5b506101fb600480360381019080803573ffffffffffffffffffffffffffffffffffffffff169060200190929190803590602001909291905050506105a2565b604051808215151515815260200191505060405180910390f35b34801561022157600080fd5b5061022a6106e6565b6040518082815260200191505060405180910390f35b34801561024c57600080fd5b506102ab600480360381019080803573ffffffffffffffffffffffffffffffffffffffff169060200190929190803573ffffffffffffffffffffffffffffffffffffffff169060200190929190803590602001909291905050506106f0565b604051808215151515815260200191505060405180910390f35b3480156102d157600080fd5b50610306600480360381019080803573ffffffffffffffffffffffffffffffffffffffff169060200190929190505050610717565b6040518082815260200191505060405180910390f35b34801561032857600080fd5b50610331610760565b6040518080602001828103825283818151815260200191508051906020019080838360005b83811015610371578082015181840152602081019050610356565b50505050905090810190601f16801561039e5780820380516001836020036101000a031916815260200191505b509250505060405180910390f35b3480156103b857600080fd5b506103f7600480360381019080803573ffffffffffffffffffffffffffffffffffffffff169060200190929190803590602001909291905050506107fe565b604051808215151515815260200191505060405180910390f35b34801561041d57600080fd5b50610452600480360381019080803573ffffffffffffffffffffffffffffffffffffffff169060200190929190505050610823565b6040518082815260200191505060405180910390f35b34801561047457600080fd5b506104c9600480360381019080803573ffffffffffffffffffffffffffffffffffffffff169060200190929190803573ffffffffffffffffffffffffffffffffffffffff16906020019092919050505061083b565b6040518082815260200191505060405180910390f35b6005602052816000526040600020602052806000526040600020600091509150505481565b60018054600181600116156101000203166002900480601f01602080910402602001604051908101604052809291908181526020018280546001816001161561010002031660029004801561059a5780601f1061056f5761010080835404028352916020019161059a565b820191906000526020600020905b81548152906001019060200180831161057d57829003601f168201915b505050505081565b6000600460003373ffffffffffffffffffffffffffffffffffffffff1673ffffffffffffffffffffffffffffffffffffffff16815260200190815260200160002054821115156106db5781600560003373ffffffffffffffffffffffffffffffffffffffff1673ffffffffffffffffffffffffffffffffffffffff16815260200190815260200160002060008573ffffffffffffffffffffffffffffffffffffffff1673ffffffffffffffffffffffffffffffffffffffff168152602001908152602001600020819055508273ffffffffffffffffffffffffffffffffffffffff163373ffffffffffffffffffffffffffffffffffffffff167f8c5be1e5ebec7d5bd14f71427d1e84f3dd0314c0f7b2291e5b200ac8c7c3b925846040518082815260200191505060405180910390a3600190506106e0565b600090505b92915050565b6000600354905090565b600061070e84848460206040519081016040528060008152506109cd565b90509392505050565b6000600460008373ffffffffffffffffffffffffffffffffffffffff1673ffffffffffffffffffffffffffffffffffffffff168152602001908152602001600020549050919050565b60008054600181600116156101000203166002900480601f0160208091040260200160405190810160405280929190818152602001828054600181600116156101000203166002900480156107f65780601f106107cb576101008083540402835291602001916107f6565b820191906000526020600020905b8154815290600101906020018083116107d957829003601f168201915b505050505081565b600061081b83836020604051908101604052806000815250610e91565b905092915050565b60046020528060005260406000206000915090505481565b6000600460008473ffffffffffffffffffffffffffffffffffffffff1673ffffffffffffffffffffffffffffffffffffffff16815260200190815260200160002054600560008573ffffffffffffffffffffffffffffffffffffffff1673ffffffffffffffffffffffffffffffffffffffff16815260200190815260200160002060008473ffffffffffffffffffffffffffffffffffffffff1673ffffffffffffffffffffffffffffffffffffffff16815260200190815260200160002054101561098457600560008473ffffffffffffffffffffffffffffffffffffffff1673ffffffffffffffffffffffffffffffffffffffff16815260200190815260200160002060008373ffffffffffffffffffffffffffffffffffffffff1673ffffffffffffffffffffffffffffffffffffffff1681526020019081526020016000205490506109c7565b600460008473ffffffffffffffffffffffffffffffffffffffff1673ffffffffffffffffffffffffffffffffffffffff1681526020019081526020016000205490505b92915050565b60008083600460008873ffffffffffffffffffffffffffffffffffffffff1673ffffffffffffffffffffffffffffffffffffffff1681526020019081526020016000205410158015610a9b57506000600560008873ffffffffffffffffffffffffffffffffffffffff1673ffffffffffffffffffffffffffffffffffffffff16815260200190815260200160002060003373ffffffffffffffffffffffffffffffffffffffff1673ffffffffffffffffffffffffffffffffffffffff16815260200190815260200160002054115b8015610b23575083600560008873ffffffffffffffffffffffffffffffffffffffff1673ffffffffffffffffffffffffffffffffffffffff16815260200190815260200160002060003373ffffffffffffffffffffffffffffffffffffffff1673ffffffffffffffffffffffffffffffffffffffff1681526020019081526020016000205410155b8015610b2f5750600084115b15610e835783600560008873ffffffffffffffffffffffffffffffffffffffff1673ffffffffffffffffffffffffffffffffffffffff16815260200190815260200160002060003373ffffffffffffffffffffffffffffffffffffffff1673ffffffffffffffffffffffffffffffffffffffff16815260200190815260200160002060008282540392505081905550610bdd8573ffffffffffffffffffffffffffffffffffffffff166111ba565b15610d0e578490508073ffffffffffffffffffffffffffffffffffffffff1663c0ee0b8a3386866040518463ffffffff167c0100000000000000000000000000000000000000000000000000000000028152600401808473ffffffffffffffffffffffffffffffffffffffff1673ffffffffffffffffffffffffffffffffffffffff16815260200183815260200180602001828103825283818151815260200191508051906020019080838360005b83811015610ca7578082015181840152602081019050610c8c565b50505050905090810190601f168015610cd45780820380516001836020036101000a031916815260200191505b50945050505050600060405180830381600087803b158015610cf557600080fd5b505af1158015610d09573d6000803e3d6000fd5b505050505b83600460008873ffffffffffffffffffffffffffffffffffffffff1673ffffffffffffffffffffffffffffffffffffffff1681526020019081526020016000206000828254039250508190555083600460008773ffffffffffffffffffffffffffffffffffffffff1673ffffffffffffffffffffffffffffffffffffffff168152602001908152602001600020600082825401925050819055508473ffffffffffffffffffffffffffffffffffffffff168673ffffffffffffffffffffffffffffffffffffffff167fe19260aff97b920c7df27010903aeb9c8d2be5d310a2c67824cf3f15396e4c1686866040518083815260200180602001828103825283818151815260200191508051906020019080838360005b83811015610e3f578082015181840152602081019050610e24565b50505050905090810190601f168015610e6c5780820380516001836020036101000a031916815260200191505b50935050505060405180910390a360019150610e88565b600091505b50949350505050565b600080600084118015610ee35750600460003373ffffffffffffffffffffffffffffffffffffffff1673ffffffffffffffffffffffffffffffffffffffff168152602001908152602001600020548411155b156111ad57610f078573ffffffffffffffffffffffffffffffffffffffff166111ba565b15611038578490508073ffffffffffffffffffffffffffffffffffffffff1663c0ee0b8a3386866040518463ffffffff167c0100000000000000000000000000000000000000000000000000000000028152600401808473ffffffffffffffffffffffffffffffffffffffff1673ffffffffffffffffffffffffffffffffffffffff16815260200183815260200180602001828103825283818151815260200191508051906020019080838360005b83811015610fd1578082015181840152602081019050610fb6565b50505050905090810190601f168015610ffe5780820380516001836020036101000a031916815260200191505b50945050505050600060405180830381600087803b15801561101f57600080fd5b505af1158015611033573d6000803e3d6000fd5b505050505b83600460003373ffffffffffffffffffffffffffffffffffffffff1673ffffffffffffffffffffffffffffffffffffffff1681526020019081526020016000206000828254039250508190555083600460008773ffffffffffffffffffffffffffffffffffffffff1673ffffffffffffffffffffffffffffffffffffffff168152602001908152602001600020600082825401925050819055508473ffffffffffffffffffffffffffffffffffffffff163373ffffffffffffffffffffffffffffffffffffffff167fe19260aff97b920c7df27010903aeb9c8d2be5d310a2c67824cf3f15396e4c1686866040518083815260200180602001828103825283818151815260200191508051906020019080838360005b8381101561116957808201518184015260208101905061114e565b50505050905090810190601f1680156111965780820380516001836020036101000a031916815260200191505b50935050505060405180910390a3600191506111b2565b600091505b509392505050565b600080823b9050600081119150509190505600a165627a7a72305820d67cba2fed94adda36359c864a8ad6e46b816d03d82c4d2b0fdf4feaae5a8a4c0029",
  "source": "pragma solidity ^0.4.18;\n\nimport \"./ERCReceivingContract.sol\";\n\ninterface ERC20 {\n\t\tfunction totalSupply() external constant returns (uint);\n    function balanceOf(address tokenOwner) external constant returns (uint balance);\n    function allowance(address tokenOwner, address spender) external constant returns (uint remaining);\n    function transfer(address _to, uint tokens) external returns (bool success);\n    function approve(address _spender, uint tokens) external returns (bool success);\n    function transferFrom(address _from, address _to, uint tokens) external returns (bool success);\n    event Transfer(address indexed from, address indexed to, uint value, bytes data);\n    event Approval(address indexed tokenOwner, address indexed spender, uint tokens);\n}\n\n\nlibrary Addresses {\n  function isContract(address _base) internal constant returns (bool) {\n      uint codeSize;\n      assembly {\n          codeSize := extcodesize(_base)\n      }\n      return codeSize > 0;\n  }\n}\n\ncontract TokenFromScratch3 is ERC20 {\n\tstring public symbol = \"TFS\";\n\tstring public name = \"Token From Scratch2\";\n\tuint8 internal decimals = 0;\n\tuint256 _totalSupply = 10000;\n\tmapping (address => uint256) public _balanceOf;\n\tmapping (address => mapping (address => uint256)) public _allowances;\n\tusing Addresses for address;\n\n\tfunction TokenFromScratch3() public {\n\t    _balanceOf[msg.sender] = _totalSupply;\n\n\t}\n\n\tfunction totalSupply() external constant returns (uint) {\n\t\treturn _totalSupply;\n\t}\n\n\tfunction balanceOf(address _addr) external constant returns (uint) {\n\t\treturn _balanceOf[_addr];\n\t}\n\n\n\n\tfunction transfer(address _to, uint tokens, bytes _data) internal returns (bool) {\n\t\tif (tokens > 0 && tokens <= _balanceOf[msg.sender]) {\n\t\t\tif(_to.isContract()){\n\t\t\t\tERCReceivingContract _contract = ERCReceivingContract(_to);\n\t\t\t\t_contract.tokenFallback(msg.sender, tokens, _data);\n\t\t\t}\n\t\t\t_balanceOf[msg.sender] -= tokens;\n\t\t\t_balanceOf[_to] += tokens;\n\t\t\temit Transfer(msg.sender, _to, tokens, _data);\n\t\t\treturn true;\n\t\t}\n\t\treturn false;\n\t}\n\n\tfunction transfer(address _to, uint tokens) external returns (bool){\n\t\treturn transfer(_to, tokens, \"\");\n\t}\n\n\tfunction approve(address _spender, uint tokens) external returns (bool){\n\t\tif (tokens <= _balanceOf[msg.sender]) {\n\t\t\t_allowances[msg.sender][_spender] = tokens;\n\t\t\temit Approval(msg.sender,_spender,tokens);\n\t\t\treturn true;\n\t\t}\n\t\treturn false;\n\t}\n\n\tfunction transferFrom(address _from, address _to, uint tokens, bytes _data) internal returns (bool) {\n\t\tif (_balanceOf[_from] >= tokens &&\n\t\t\t_allowances[_from][msg.sender] > 0 &&\n\t\t\t_allowances[_from][msg.sender] >= tokens &&\n\t\t\ttokens > 0){\n\t\t\t\t_allowances[_from][msg.sender] -= tokens;\n\t\t\t\tif (_to.isContract()){\n\t\t\t\t\tERCReceivingContract _contract = ERCReceivingContract(_to);\n\t\t\t\t\t_contract.tokenFallback(msg.sender, tokens, _data);\n\t\t\t\t}\n\t\t\t_balanceOf[_from] -= tokens;\n\t\t\t_balanceOf[_to] += tokens;\n\t\t\temit Transfer(_from, _to, tokens, _data);\n\t\t\treturn true;\n\t\t}\n\t\treturn false;\n\t}\n\tfunction transferFrom(address _from, address _to, uint tokens) external returns (bool){\n\t\treturn transferFrom(_from, _to, tokens, \"\");\n\t}\n\n\tfunction allowance(address tokenOwner, address spender) external constant returns (uint){\n\t\tif (_allowances[tokenOwner][spender] < _balanceOf[tokenOwner]) {\n\t\t\treturn _allowances[tokenOwner][spender];\n\t\t}\n\t\treturn _balanceOf[tokenOwner];\n\t}\n\n}\n",
  "sourcePath": "/Users/chrayzhang/Desktop/ICOTest/contracts/TokenFromScratch3.sol",
  "compiler": {
    "name": "solc",
    "version": "0.4.23+commit.124ca40d.Emscripten.clang"
  },
  "schemaVersion": "2.0.0",
  "updatedAt": "2018-05-11T19:38:10.240Z"
}